:100000000C942A000C943C000C943C000C943C0092
:100010000C943C000C943C000C943C000C943C0070
:100020000C943C000C943C000C9464020C943C0036
:100030000C943C000C943C000C943C000C943C0050
:100040000C943C000C943C000C943C000C943C0040
:100050000C943C0011241FBECFE5D8E0DEBFCDBF1D
:1000600010E0A0E6B0E001C01D92A537B107E1F7AE
:100070000E94AB020C942E030C940000813009F115
:10008000813030F08230B1F1833009F062C04AC073
:10009000413071F0413020F0423009F05AC003C0C5
:1000A0008AB3862B03C08AB3609586238ABB0895E2
:1000B0008AB3962F909598239ABB8BB3862B8BBBD4
:1000C0000895413071F0413020F0423009F041C0D4
:1000D00003C087B3862B03C087B36095862387BB95
:1000E000089587B3962F9095982397BB88B3862B56
:1000F00088BB0895413069F0413018F0423049F52D
:1001000003C084B3862B03C084B36095862384BB6D
:10011000089584B3962F9095982394BB85B3862B2E
:1001200085BB0895413069F0413018F0423089F4C0
:1001300003C081B3862B03C081B36095862381BB46
:10014000089581B3962F9095982391BB82B3862B07
:1001500082BB0895813099F0813028F08230D9F047
:10016000833089F524C0442329F0413061F58BB3F5
:10017000862B03C08BB3609586238BBB08954423E5
:1001800029F0413001F588B3862B03C088B3609510
:10019000862388BB0895442329F04130A1F485B318
:1001A000862B03C085B36095862385BB08954423C1
:1001B00031F0413041F482B3862B82BB089582B383
:1001C0006095862382BB0895813059F0813028F0F4
:1001D000823059F0833081F40CC08BB386278BBBFF
:1001E000089588B3862788BB089585B3862785BB85
:1001F000089582B3862782BB0895813051F0813003
:1002000030F0823041F0833059F080E0089589B3B6
:1002100003C086B301C083B3862331F081E0089523
:1002200080B3862309F081E00895882319F0813096
:10023000D9F40AC083B7887F83BF12BE83B7909179
:100240006600892B83BF08958EB59FB5887F9FBDBB
:100250008EBD1DBC1CBC2EB53FB58091670090E0E3
:10026000822B932B9FBD8EBD0895882319F081307A
:1002700051F404C083B7887F83BF08958EB59FB5BE
:10028000887F9FBD8EBD0895813069F0813018F060
:10029000823081F40CC083E08093660088E083BFE5
:1002A0008DE78CBF089583E080936700089583E015
:1002B000809368000895882399F460936600613004
:1002C00078F0663028F0862F8B50853048F403C0D4
:1002D00088E683BF08956A506093660080E683BF16
:1002E000089520E132EA3FBD2EBD9695879597BDD2
:1002F00086BD82E080936700089580E490E09FBD12
:100300008EBD17BC16BC82E0809367000895EF9203
:10031000FF920F931F937A018B018823B9F480E039
:100320000E9415010BC008B601FEFDCF88B78260A0
:1003300088BF0894E108F10801091109E114F104EA
:100340000105110581F780E00E9435011F910F9191
:10035000FF90EF900895982F8FB780688FBF9130EE
:10036000C1F0913018F0923069F520C040936900D7
:1003700050936A0060936B0070936C00309361003F
:100380002093600089B7826089BF80E00E941501D8
:10039000089540936D0050936E0060936F007093CA
:1003A00070003093630020936200089540937100C1
:1003B00050937200609373007093740030936500E3
:1003C000209364000895882321F46CBF80E00E948C
:1003D00015010895882319F480E00E9435010895DD
:1003E000882319F0813031F403C07BBD6ABD02C09F
:1003F00079BD68BD81E00E9415010895AF92BF925A
:10040000CF92DF92EF92FF920F931F93CF93DF93E0
:100410006C015B0181E00E94150108B605FEFDCF6D
:1004200088B7806288BF06B517B58EB59FB58F7B3C
:100430009FBD8EBD08B605FEFDCF88B7806288BF20
:10044000C6B5D7B58EB59FB580649FBD8EBD08B6C5
:1004500005FEFDCF88B7806288BFE6B4F7B481E0BF
:100460000E943501E01AF10AC01BD10B84E690E02E
:100470009C01C29FC001C39F900DD29F900D11247B
:10048000B7010E94DD0280E090E0F6016083718395
:100490008283938300E010E060E472E48FE090E0F8
:1004A000A80197010E94F102F50120833183428364
:1004B0005383DF91CF911F910F91FF90EF90DF90C9
:1004C000CF90BF90AF9008951F920F920FB60F92EA
:1004D00011242F933F934F935F936F937F938F9349
:1004E0009F93AF93BF93EF93FF93E0916000F091E0
:1004F00061003097F9F08091690090916A00A091B5
:100500006B00B0916C000097A105B10561F00197F7
:10051000A109B1098093690090936A00A0936B00D0
:10052000B0936C0007C0099589B78D7F89BF80E0C3
:100530000E943501FF91EF91BF91AF919F918F91F3
:100540007F916F915F914F913F912F910F900FBECF
:100550000F901F901895CF93DF9383E060E240E007
:100560000E943E0080E29EE40E947101C8ECD0E04F
:1005700080E064EF71E00E94F00180E197E2FE010B
:100580003197F1F70197D9F780E06EEE72E00E94A3
:10059000F00180E197E2FE013197F1F70197D9F779
:1005A00080E068EE73E00E94F00180E197E2FE01D6
:1005B0003197F1F70197D9F7DBCFAA1BBB1B51E1AC
:1005C00007C0AA1FBB1FA617B70710F0A61BB70BC3
:1005D000881F991F5A95A9F780959095BC01CD0168
:1005E000089597FB092E05260ED057FD04D014D090
:1005F0000AD0001C38F450954095309521953F4F16
:100600004F4F5F4F0895F6F79095809570956195DF
:100610007F4F8F4F9F4F0895A1E21A2EAA1BBB1B3D
:10062000FD010DC0AA1FBB1FEE1FFF1FA217B307BE
:10063000E407F50720F0A21BB30BE40BF50B661FD4
:10064000771F881F991F1A9469F760957095809598
:1006500090959B01AC01BD01CF010895F894FFCFA7
:00000001FF
